{
  "contracts/MetaMultiSigWallet.sol": {
    "MetaMultiSigWallet": {
      "abi": [
        {
          "inputs": [
            {
              "internalType": "uint256",
              "name": "_chainId",
              "type": "uint256"
            },
            {
              "internalType": "address[]",
              "name": "_owners",
              "type": "address[]"
            },
            {
              "internalType": "uint256",
              "name": "_signaturesRequired",
              "type": "uint256"
            }
          ],
          "stateMutability": "nonpayable",
          "type": "constructor"
        },
        {
          "anonymous": false,
          "inputs": [
            {
              "indexed": true,
              "internalType": "address",
              "name": "to",
              "type": "address"
            }
          ],
          "name": "CloseStream",
          "type": "event"
        },
        {
          "anonymous": false,
          "inputs": [
            {
              "indexed": true,
              "internalType": "address",
              "name": "sender",
              "type": "address"
            },
            {
              "indexed": false,
              "internalType": "uint256",
              "name": "amount",
              "type": "uint256"
            },
            {
              "indexed": false,
              "internalType": "uint256",
              "name": "balance",
              "type": "uint256"
            }
          ],
          "name": "Deposit",
          "type": "event"
        },
        {
          "anonymous": false,
          "inputs": [
            {
              "indexed": true,
              "internalType": "address",
              "name": "owner",
              "type": "address"
            },
            {
              "indexed": false,
              "internalType": "address payable",
              "name": "to",
              "type": "address"
            },
            {
              "indexed": false,
              "internalType": "uint256",
              "name": "value",
              "type": "uint256"
            },
            {
              "indexed": false,
              "internalType": "bytes",
              "name": "data",
              "type": "bytes"
            },
            {
              "indexed": false,
              "internalType": "uint256",
              "name": "nonce",
              "type": "uint256"
            },
            {
              "indexed": false,
              "internalType": "bytes32",
              "name": "hash",
              "type": "bytes32"
            },
            {
              "indexed": false,
              "internalType": "bytes",
              "name": "result",
              "type": "bytes"
            }
          ],
          "name": "ExecuteTransaction",
          "type": "event"
        },
        {
          "anonymous": false,
          "inputs": [
            {
              "indexed": true,
              "internalType": "address",
              "name": "to",
              "type": "address"
            },
            {
              "indexed": false,
              "internalType": "uint256",
              "name": "amount",
              "type": "uint256"
            },
            {
              "indexed": false,
              "internalType": "uint256",
              "name": "frequency",
              "type": "uint256"
            }
          ],
          "name": "OpenStream",
          "type": "event"
        },
        {
          "anonymous": false,
          "inputs": [
            {
              "indexed": true,
              "internalType": "address",
              "name": "owner",
              "type": "address"
            },
            {
              "indexed": false,
              "internalType": "bool",
              "name": "added",
              "type": "bool"
            }
          ],
          "name": "Owner",
          "type": "event"
        },
        {
          "anonymous": false,
          "inputs": [
            {
              "indexed": true,
              "internalType": "address",
              "name": "to",
              "type": "address"
            },
            {
              "indexed": false,
              "internalType": "uint256",
              "name": "amount",
              "type": "uint256"
            },
            {
              "indexed": false,
              "internalType": "string",
              "name": "reason",
              "type": "string"
            }
          ],
          "name": "Withdraw",
          "type": "event"
        },
        {
          "inputs": [
            {
              "internalType": "address",
              "name": "newSigner",
              "type": "address"
            },
            {
              "internalType": "uint256",
              "name": "newSignaturesRequired",
              "type": "uint256"
            }
          ],
          "name": "addSigner",
          "outputs": [],
          "stateMutability": "nonpayable",
          "type": "function"
        },
        {
          "inputs": [],
          "name": "chainId",
          "outputs": [
            {
              "internalType": "uint256",
              "name": "",
              "type": "uint256"
            }
          ],
          "stateMutability": "view",
          "type": "function"
        },
        {
          "inputs": [
            {
              "internalType": "address payable",
              "name": "to",
              "type": "address"
            }
          ],
          "name": "closeStream",
          "outputs": [],
          "stateMutability": "nonpayable",
          "type": "function"
        },
        {
          "inputs": [
            {
              "internalType": "address payable",
              "name": "to",
              "type": "address"
            },
            {
              "internalType": "uint256",
              "name": "value",
              "type": "uint256"
            },
            {
              "internalType": "bytes",
              "name": "data",
              "type": "bytes"
            },
            {
              "internalType": "bytes[]",
              "name": "signatures",
              "type": "bytes[]"
            }
          ],
          "name": "executeTransaction",
          "outputs": [
            {
              "internalType": "bytes",
              "name": "",
              "type": "bytes"
            }
          ],
          "stateMutability": "nonpayable",
          "type": "function"
        },
        {
          "inputs": [
            {
              "internalType": "uint256",
              "name": "_nonce",
              "type": "uint256"
            },
            {
              "internalType": "address",
              "name": "to",
              "type": "address"
            },
            {
              "internalType": "uint256",
              "name": "value",
              "type": "uint256"
            },
            {
              "internalType": "bytes",
              "name": "data",
              "type": "bytes"
            }
          ],
          "name": "getTransactionHash",
          "outputs": [
            {
              "internalType": "bytes32",
              "name": "",
              "type": "bytes32"
            }
          ],
          "stateMutability": "view",
          "type": "function"
        },
        {
          "inputs": [
            {
              "internalType": "address",
              "name": "",
              "type": "address"
            }
          ],
          "name": "isOwner",
          "outputs": [
            {
              "internalType": "bool",
              "name": "",
              "type": "bool"
            }
          ],
          "stateMutability": "view",
          "type": "function"
        },
        {
          "inputs": [],
          "name": "nonce",
          "outputs": [
            {
              "internalType": "uint256",
              "name": "",
              "type": "uint256"
            }
          ],
          "stateMutability": "view",
          "type": "function"
        },
        {
          "inputs": [
            {
              "internalType": "address",
              "name": "to",
              "type": "address"
            },
            {
              "internalType": "uint256",
              "name": "amount",
              "type": "uint256"
            },
            {
              "internalType": "uint256",
              "name": "frequency",
              "type": "uint256"
            }
          ],
          "name": "openStream",
          "outputs": [],
          "stateMutability": "nonpayable",
          "type": "function"
        },
        {
          "inputs": [
            {
              "internalType": "bytes32",
              "name": "_hash",
              "type": "bytes32"
            },
            {
              "internalType": "bytes",
              "name": "_signature",
              "type": "bytes"
            }
          ],
          "name": "recover",
          "outputs": [
            {
              "internalType": "address",
              "name": "",
              "type": "address"
            }
          ],
          "stateMutability": "pure",
          "type": "function"
        },
        {
          "inputs": [
            {
              "internalType": "address",
              "name": "oldSigner",
              "type": "address"
            },
            {
              "internalType": "uint256",
              "name": "newSignaturesRequired",
              "type": "uint256"
            }
          ],
          "name": "removeSigner",
          "outputs": [],
          "stateMutability": "nonpayable",
          "type": "function"
        },
        {
          "inputs": [],
          "name": "signaturesRequired",
          "outputs": [
            {
              "internalType": "uint256",
              "name": "",
              "type": "uint256"
            }
          ],
          "stateMutability": "view",
          "type": "function"
        },
        {
          "inputs": [
            {
              "internalType": "address",
              "name": "to",
              "type": "address"
            }
          ],
          "name": "streamBalance",
          "outputs": [
            {
              "internalType": "uint256",
              "name": "",
              "type": "uint256"
            }
          ],
          "stateMutability": "view",
          "type": "function"
        },
        {
          "inputs": [
            {
              "internalType": "uint256",
              "name": "amount",
              "type": "uint256"
            },
            {
              "internalType": "string",
              "name": "reason",
              "type": "string"
            }
          ],
          "name": "streamWithdraw",
          "outputs": [],
          "stateMutability": "nonpayable",
          "type": "function"
        },
        {
          "inputs": [
            {
              "internalType": "address",
              "name": "",
              "type": "address"
            }
          ],
          "name": "streams",
          "outputs": [
            {
              "internalType": "uint256",
              "name": "amount",
              "type": "uint256"
            },
            {
              "internalType": "uint256",
              "name": "frequency",
              "type": "uint256"
            },
            {
              "internalType": "uint256",
              "name": "last",
              "type": "uint256"
            }
          ],
          "stateMutability": "view",
          "type": "function"
        },
        {
          "inputs": [
            {
              "internalType": "uint256",
              "name": "newSignaturesRequired",
              "type": "uint256"
            }
          ],
          "name": "updateSignaturesRequired",
          "outputs": [],
          "stateMutability": "nonpayable",
          "type": "function"
        },
        {
          "stateMutability": "payable",
          "type": "receive"
        }
      ],
      "evm": {
        "bytecode": {
          "linkReferences": {},
          "object": "60806040523480156200001157600080fd5b5060405162001ca238038062001ca2833981016040819052620000349162000238565b600081116200009e5760405162461bcd60e51b815260206004820152602b60248201527f636f6e7374727563746f723a206d757374206265206e6f6e2d7a65726f20736960448201526a19dcc81c995c5d5a5c995960aa1b60648201526084015b60405180910390fd5b600181905560005b82518110156200020f576000838281518110620000c757620000c762000352565b6020026020010151905060006001600160a01b0316816001600160a01b03161415620001365760405162461bcd60e51b815260206004820152601960248201527f636f6e7374727563746f723a207a65726f206164647265737300000000000000604482015260640162000095565b6001600160a01b03811660009081526020819052604090205460ff1615620001a15760405162461bcd60e51b815260206004820152601d60248201527f636f6e7374727563746f723a206f776e6572206e6f7420756e69717565000000604482015260640162000095565b6001600160a01b03811660008181526020818152604091829020805460ff1916600190811790915591519182527ffe545f48304051c4029eb2da9927daa59da0414b4b084fdceaf2955b609b899e910160405180910390a25080620002068162000328565b915050620000a6565b5050506003556200037e565b80516001600160a01b03811681146200023357600080fd5b919050565b6000806000606084860312156200024e57600080fd5b8351602080860151919450906001600160401b03808211156200027057600080fd5b818701915087601f8301126200028557600080fd5b8151818111156200029a576200029a62000368565b8060051b604051601f19603f83011681018181108582111715620002c257620002c262000368565b604052828152858101935084860182860187018c1015620002e257600080fd5b600095505b838610156200031057620002fb816200021b565b855260019590950194938601938601620002e7565b50809750505050505050604084015190509250925092565b60006000198214156200034b57634e487b7160e01b600052601160045260246000fd5b5060010190565b634e487b7160e01b600052603260045260246000fd5b634e487b7160e01b600052604160045260246000fd5b611914806200038e6000396000f3fe6080604052600436106100ec5760003560e01c8063836992751161008a578063ce757d2911610059578063ce757d2914610302578063d1fbffa014610318578063de4b9e9314610345578063e0a2ff541461036557600080fd5b8063836992751461025f5780639a8a0592146102b6578063a8397ddc146102cc578063affed0e0146102ec57600080fd5b80633034a742116100c65780633034a742146101d15780633bad5426146101f1578063545a4a3c1461021157806365af1bed1461023f57600080fd5b806319045a25146101325780632a387d5d1461016f5780632f54bf6e1461019157600080fd5b3661012d576040805134815247602082015233917f90890809c654f11d6e72a28fa60149770a0d11ec6c92319d6ceb2bb0a4ea1a15910160405180910390a2005b600080fd5b34801561013e57600080fd5b5061015261014d366004611526565b610385565b6040516001600160a01b0390911681526020015b60405180910390f35b34801561017b57600080fd5b5061018f61018a3660046114f1565b6103ef565b005b34801561019d57600080fd5b506101c16101ac36600461139f565b60006020819052908152604090205460ff1681565b6040519015158152602001610166565b3480156101dd57600080fd5b5061018f6101ec36600461156d565b61057d565b3480156101fd57600080fd5b5061018f61020c3660046114c5565b610617565b34801561021d57600080fd5b5061023161022c366004611586565b610766565b604051908152602001610166565b34801561024b57600080fd5b5061018f61025a3660046114c5565b6107a5565b34801561026b57600080fd5b5061029b61027a36600461139f565b60046020526000908152604090208054600182015460029092015490919083565b60408051938452602084019290925290820152606001610166565b3480156102c257600080fd5b5061023160035481565b3480156102d857600080fd5b5061018f6102e73660046115e9565b610943565b3480156102f857600080fd5b5061023160025481565b34801561030e57600080fd5b5061023160015481565b34801561032457600080fd5b506103386103333660046113bc565b6109ae565b604051610166919061172f565b34801561035157600080fd5b5061018f61036036600461139f565b610cc8565b34801561037157600080fd5b5061023161038036600461139f565b610e00565b60006103e8826103e2856040517f19457468657265756d205369676e6564204d6573736167653a0a3332000000006020820152603c8101829052600090605c01604051602081830303815290604052805190602001209050919050565b90610e60565b9392505050565b3330146104175760405162461bcd60e51b815260040161040e90611742565b60405180910390fd5b6001600160a01b0383166000908152600460205260409020541561047d5760405162461bcd60e51b815260206004820152601f60248201527f6f70656e53747265616d3a2073747265616d20616c7265616479206f70656e00604482015260640161040e565b600082116104c55760405162461bcd60e51b81526020600482015260156024820152741bdc195b94dd1c99585b4e881b9bc8185b5bdd5b9d605a1b604482015260640161040e565b600081116105155760405162461bcd60e51b815260206004820152601860248201527f6f70656e53747265616d3a206e6f206672657175656e63790000000000000000604482015260640161040e565b6001600160a01b038316600081815260046020908152604091829020858155600181018590554260029091015581518581529081018490527f81236f9eb471668cf00861415085dace409d719678881c59b03e49683bbef716910160405180910390a2505050565b33301461059c5760405162461bcd60e51b815260040161040e90611742565b600081116106125760405162461bcd60e51b815260206004820152603860248201527f7570646174655369676e61747572657352657175697265643a206d757374206260448201527f65206e6f6e2d7a65726f20736967732072657175697265640000000000000000606482015260840161040e565b600155565b3330146106365760405162461bcd60e51b815260040161040e90611742565b6001600160a01b03821660009081526020819052604090205460ff1661069e5760405162461bcd60e51b815260206004820152601760248201527f72656d6f76655369676e65723a206e6f74206f776e6572000000000000000000604482015260640161040e565b600081116107035760405162461bcd60e51b815260206004820152602c60248201527f72656d6f76655369676e65723a206d757374206265206e6f6e2d7a65726f207360448201526b1a59dcc81c995c5d5a5c995960a21b606482015260840161040e565b6001600160a01b03821660008181526020818152604091829020805460ff19168155600185905554915160ff909216151582527ffe545f48304051c4029eb2da9927daa59da0414b4b084fdceaf2955b609b899e91015b60405180910390a25050565b6000306003548686868660405160200161078596959493929190611666565b604051602081830303815290604052805190602001209050949350505050565b3330146107c45760405162461bcd60e51b815260040161040e90611742565b6001600160a01b03821661081a5760405162461bcd60e51b815260206004820152601760248201527f6164645369676e65723a207a65726f2061646472657373000000000000000000604482015260640161040e565b6001600160a01b03821660009081526020819052604090205460ff16156108835760405162461bcd60e51b815260206004820152601b60248201527f6164645369676e65723a206f776e6572206e6f7420756e697175650000000000604482015260640161040e565b600081116108e55760405162461bcd60e51b815260206004820152602960248201527f6164645369676e65723a206d757374206265206e6f6e2d7a65726f2073696773604482015268081c995c5d5a5c995960ba1b606482015260840161040e565b6001600160a01b03821660008181526020818152604091829020805460ff19166001908117825585905554915160ff909216151582527ffe545f48304051c4029eb2da9927daa59da0414b4b084fdceaf2955b609b899e910161075a565b3360009081526004602052604090205461099f5760405162461bcd60e51b815260206004820152601860248201527f77697468647261773a206e6f206f70656e2073747265616d0000000000000000604482015260640161040e565b6109aa338383610e84565b5050565b3360009081526020819052604090205460609060ff16610a245760405162461bcd60e51b815260206004820152602b60248201527f657865637574655472616e73616374696f6e3a206f6e6c79206f776e6572732060448201526a63616e206578656375746560a81b606482015260840161040e565b6000610a34600254878787610766565b600280549192506000610a4683611856565b919050555060008060005b8551811015610b47576000610a7f85888481518110610a7257610a7261189d565b6020026020010151610385565b9050826001600160a01b0316816001600160a01b031611610b005760405162461bcd60e51b815260206004820152603560248201527f657865637574655472616e73616374696f6e3a206475706c6963617465206f7260448201527420756e6f726465726564207369676e61747572657360581b606482015260840161040e565b6001600160a01b038116600090815260208190526040902054909250829060ff1615610b345783610b3081611856565b9450505b5080610b3f81611856565b915050610a51565b50600154821015610bb25760405162461bcd60e51b815260206004820152602f60248201527f657865637574655472616e73616374696f6e3a206e6f7420656e6f756768207660448201526e616c6964207369676e61747572657360881b606482015260840161040e565b600080896001600160a01b03168989604051610bce91906116c1565b60006040518083038185875af1925050503d8060008114610c0b576040519150601f19603f3d011682016040523d82523d6000602084013e610c10565b606091505b509150915081610c625760405162461bcd60e51b815260206004820152601d60248201527f657865637574655472616e73616374696f6e3a207478206661696c6564000000604482015260640161040e565b336001600160a01b03167f9053e9ec105157fac8c9308d63e6b22be5f50fe915a3e567419b624311a02d748b8b8b6001600254610c9f919061180f565b8a87604051610cb3969594939291906116dd565b60405180910390a29998505050505050505050565b333014610ce75760405162461bcd60e51b815260040161040e90611742565b6001600160a01b038116600090815260046020526040902054610d575760405162461bcd60e51b815260206004820152602260248201527f636c6f736553747265616d3a2073747265616d20616c726561647920636c6f73604482015261195960f21b606482015260840161040e565b610daf8160046000846001600160a01b03166001600160a01b03168152602001908152602001600020600001546040518060400160405280600d81526020016c1cdd1c99585b4818db1bdcd959609a1b815250610e84565b6001600160a01b03811660008181526004602052604080822082815560018101839055600201829055517fcc362a45d32c94d02a329570bd5935709d77f6dc79ac6afa5107b513642461c29190a250565b6001600160a01b03811660009081526004602052604081206001810154600290910154610e2d904261180f565b6001600160a01b038416600090815260046020526040902054610e5091906117f0565b610e5a91906117ce565b92915050565b6000806000610e6f8585610fd3565b91509150610e7c81611043565b509392505050565b6000610e8f84610e00565b905082811015610ed85760405162461bcd60e51b81526020600482015260146024820152730eed2e8d0c8e4c2ee7440dcdee840cadcdeeaced60631b604482015260640161040e565b6001600160a01b03841660009081526004602052604090206002015481908490610f02904261180f565b610f0c91906117f0565b610f1691906117ce565b6001600160a01b038516600090815260046020526040902060020154610f3c91906117b6565b6001600160a01b038516600081815260046020526040908190206002019290925590517f485f1bb6524c663555797e00171a10f341656e59b02d6b557a0a38ba7d5d975190610f8e9086908690611764565b60405180910390a26040516001600160a01b0385169084156108fc029085906000818181858888f19350505050158015610fcc573d6000803e3d6000fd5b5050505050565b60008082516041141561100a5760208301516040840151606085015160001a610ffe87828585611201565b9450945050505061103c565b82516040141561103457602083015160408401516110298683836112ee565b93509350505061103c565b506000905060025b9250929050565b600081600481111561105757611057611887565b14156110605750565b600181600481111561107457611074611887565b14156110c25760405162461bcd60e51b815260206004820152601860248201527f45434453413a20696e76616c6964207369676e61747572650000000000000000604482015260640161040e565b60028160048111156110d6576110d6611887565b14156111245760405162461bcd60e51b815260206004820152601f60248201527f45434453413a20696e76616c6964207369676e6174757265206c656e67746800604482015260640161040e565b600381600481111561113857611138611887565b14156111915760405162461bcd60e51b815260206004820152602260248201527f45434453413a20696e76616c6964207369676e6174757265202773272076616c604482015261756560f01b606482015260840161040e565b60048160048111156111a5576111a5611887565b14156111fe5760405162461bcd60e51b815260206004820152602260248201527f45434453413a20696e76616c6964207369676e6174757265202776272076616c604482015261756560f01b606482015260840161040e565b50565b6000807f7fffffffffffffffffffffffffffffff5d576e7357a4501ddfe92f46681b20a083111561123857506000905060036112e5565b8460ff16601b1415801561125057508460ff16601c14155b1561126157506000905060046112e5565b6040805160008082526020820180845289905260ff881692820192909252606081018690526080810185905260019060a0016020604051602081039080840390855afa1580156112b5573d6000803e3d6000fd5b5050604051601f1901519150506001600160a01b0381166112de576000600192509250506112e5565b9150600090505b94509492505050565b6000806001600160ff1b0383168161130b60ff86901c601b6117b6565b905061131987828885611201565b935093505050935093915050565b600067ffffffffffffffff831115611341576113416118b3565b611354601f8401601f1916602001611785565b905082815283838301111561136857600080fd5b828260208301376000602084830101529392505050565b600082601f83011261139057600080fd5b6103e883833560208501611327565b6000602082840312156113b157600080fd5b81356103e8816118c9565b600080600080608085870312156113d257600080fd5b84356113dd816118c9565b93506020858101359350604086013567ffffffffffffffff8082111561140257600080fd5b61140e89838a0161137f565b9450606088013591508082111561142457600080fd5b818801915088601f83011261143857600080fd5b81358181111561144a5761144a6118b3565b8060051b611459858201611785565b8281528581019085870183870188018e101561147457600080fd5b600093505b848410156114b35780358681111561149057600080fd5b61149e8f8a838b010161137f565b84525060019390930192918701918701611479565b50999c989b5096995050505050505050565b600080604083850312156114d857600080fd5b82356114e3816118c9565b946020939093013593505050565b60008060006060848603121561150657600080fd5b8335611511816118c9565b95602085013595506040909401359392505050565b6000806040838503121561153957600080fd5b82359150602083013567ffffffffffffffff81111561155757600080fd5b6115638582860161137f565b9150509250929050565b60006020828403121561157f57600080fd5b5035919050565b6000806000806080858703121561159c57600080fd5b8435935060208501356115ae816118c9565b925060408501359150606085013567ffffffffffffffff8111156115d157600080fd5b6115dd8782880161137f565b91505092959194509250565b600080604083850312156115fc57600080fd5b82359150602083013567ffffffffffffffff81111561161a57600080fd5b8301601f8101851361162b57600080fd5b61156385823560208401611327565b60008151808452611652816020860160208601611826565b601f01601f19169290920160200192915050565b60006bffffffffffffffffffffffff19808960601b168352876014840152866034840152808660601b1660548401525083606883015282516116af816088850160208701611826565b91909101608801979650505050505050565b600082516116d3818460208701611826565b9190910192915050565b60018060a01b038716815285602082015260c06040820152600061170460c083018761163a565b85606084015284608084015282810360a0840152611722818561163a565b9998505050505050505050565b6020815260006103e8602083018461163a565b6020808252600890820152672737ba1029b2b63360c11b604082015260600190565b82815260406020820152600061177d604083018461163a565b949350505050565b604051601f8201601f1916810167ffffffffffffffff811182821017156117ae576117ae6118b3565b604052919050565b600082198211156117c9576117c9611871565b500190565b6000826117eb57634e487b7160e01b600052601260045260246000fd5b500490565b600081600019048311821515161561180a5761180a611871565b500290565b60008282101561182157611821611871565b500390565b60005b83811015611841578181015183820152602001611829565b83811115611850576000848401525b50505050565b600060001982141561186a5761186a611871565b5060010190565b634e487b7160e01b600052601160045260246000fd5b634e487b7160e01b600052602160045260246000fd5b634e487b7160e01b600052603260045260246000fd5b634e487b7160e01b600052604160045260246000fd5b6001600160a01b03811681146111fe57600080fdfea2646970667358221220c3263779eed87dfdbd99b7f7f27ae5b37b993dc1fe0217c98c180d76e9d2119364736f6c63430008060033",
          "opcodes": "PUSH1 0x80 PUSH1 0x40 MSTORE CALLVALUE DUP1 ISZERO PUSH3 0x11 JUMPI PUSH1 0x0 DUP1 REVERT JUMPDEST POP PUSH1 0x40 MLOAD PUSH3 0x1CA2 CODESIZE SUB DUP1 PUSH3 0x1CA2 DUP4 CODECOPY DUP2 ADD PUSH1 0x40 DUP2 SWAP1 MSTORE PUSH3 0x34 SWAP2 PUSH3 0x238 JUMP JUMPDEST PUSH1 0x0 DUP2 GT PUSH3 0x9E JUMPI PUSH1 0x40 MLOAD PUSH3 0x461BCD PUSH1 0xE5 SHL DUP2 MSTORE PUSH1 0x20 PUSH1 0x4 DUP3 ADD MSTORE PUSH1 0x2B PUSH1 0x24 DUP3 ADD MSTORE PUSH32 0x636F6E7374727563746F723A206D757374206265206E6F6E2D7A65726F207369 PUSH1 0x44 DUP3 ADD MSTORE PUSH11 0x19DCC81C995C5D5A5C9959 PUSH1 0xAA SHL PUSH1 0x64 DUP3 ADD MSTORE PUSH1 0x84 ADD JUMPDEST PUSH1 0x40 MLOAD DUP1 SWAP2 SUB SWAP1 REVERT JUMPDEST PUSH1 0x1 DUP2 SWAP1 SSTORE PUSH1 0x0 JUMPDEST DUP3 MLOAD DUP2 LT ISZERO PUSH3 0x20F JUMPI PUSH1 0x0 DUP4 DUP3 DUP2 MLOAD DUP2 LT PUSH3 0xC7 JUMPI PUSH3 0xC7 PUSH3 0x352 JUMP JUMPDEST PUSH1 0x20 MUL PUSH1 0x20 ADD ADD MLOAD SWAP1 POP PUSH1 0x0 PUSH1 0x1 PUSH1 0x1 PUSH1 0xA0 SHL SUB AND DUP2 PUSH1 0x1 PUSH1 0x1 PUSH1 0xA0 SHL SUB AND EQ ISZERO PUSH3 0x136 JUMPI PUSH1 0x40 MLOAD PUSH3 0x461BCD PUSH1 0xE5 SHL DUP2 MSTORE PUSH1 0x20 PUSH1 0x4 DUP3 ADD MSTORE PUSH1 0x19 PUSH1 0x24 DUP3 ADD MSTORE PUSH32 0x636F6E7374727563746F723A207A65726F206164647265737300000000000000 PUSH1 0x44 DUP3 ADD MSTORE PUSH1 0x64 ADD PUSH3 0x95 JUMP JUMPDEST PUSH1 0x1 PUSH1 0x1 PUSH1 0xA0 SHL SUB DUP2 AND PUSH1 0x0 SWAP1 DUP2 MSTORE PUSH1 0x20 DUP2 SWAP1 MSTORE PUSH1 0x40 SWAP1 KECCAK256 SLOAD PUSH1 0xFF AND ISZERO PUSH3 0x1A1 JUMPI PUSH1 0x40 MLOAD PUSH3 0x461BCD PUSH1 0xE5 SHL DUP2 MSTORE PUSH1 0x20 PUSH1 0x4 DUP3 ADD MSTORE PUSH1 0x1D PUSH1 0x24 DUP3 ADD MSTORE PUSH32 0x636F6E7374727563746F723A206F776E6572206E6F7420756E69717565000000 PUSH1 0x44 DUP3 ADD MSTORE PUSH1 0x64 ADD PUSH3 0x95 JUMP JUMPDEST PUSH1 0x1 PUSH1 0x1 PUSH1 0xA0 SHL SUB DUP2 AND PUSH1 0x0 DUP2 DUP2 MSTORE PUSH1 0x20 DUP2 DUP2 MSTORE PUSH1 0x40 SWAP2 DUP3 SWAP1 KECCAK256 DUP1 SLOAD PUSH1 0xFF NOT AND PUSH1 0x1 SWAP1 DUP2 OR SWAP1 SWAP2 SSTORE SWAP2 MLOAD SWAP2 DUP3 MSTORE PUSH32 0xFE545F48304051C4029EB2DA9927DAA59DA0414B4B084FDCEAF2955B609B899E SWAP2 ADD PUSH1 0x40 MLOAD DUP1 SWAP2 SUB SWAP1 LOG2 POP DUP1 PUSH3 0x206 DUP2 PUSH3 0x328 JUMP JUMPDEST SWAP2 POP POP PUSH3 0xA6 JUMP JUMPDEST POP POP POP PUSH1 0x3 SSTORE PUSH3 0x37E JUMP JUMPDEST DUP1 MLOAD PUSH1 0x1 PUSH1 0x1 PUSH1 0xA0 SHL SUB DUP2 AND DUP2 EQ PUSH3 0x233 JUMPI PUSH1 0x0 DUP1 REVERT JUMPDEST SWAP2 SWAP1 POP JUMP JUMPDEST PUSH1 0x0 DUP1 PUSH1 0x0 PUSH1 0x60 DUP5 DUP7 SUB SLT ISZERO PUSH3 0x24E JUMPI PUSH1 0x0 DUP1 REVERT JUMPDEST DUP4 MLOAD PUSH1 0x20 DUP1 DUP7 ADD MLOAD SWAP2 SWAP5 POP SWAP1 PUSH1 0x1 PUSH1 0x1 PUSH1 0x40 SHL SUB DUP1 DUP3 GT ISZERO PUSH3 0x270 JUMPI PUSH1 0x0 DUP1 REVERT JUMPDEST DUP2 DUP8 ADD SWAP2 POP DUP8 PUSH1 0x1F DUP4 ADD SLT PUSH3 0x285 JUMPI PUSH1 0x0 DUP1 REVERT JUMPDEST DUP2 MLOAD DUP2 DUP2 GT ISZERO PUSH3 0x29A JUMPI PUSH3 0x29A PUSH3 0x368 JUMP JUMPDEST DUP1 PUSH1 0x5 SHL PUSH1 0x40 MLOAD PUSH1 0x1F NOT PUSH1 0x3F DUP4 ADD AND DUP2 ADD DUP2 DUP2 LT DUP6 DUP3 GT OR ISZERO PUSH3 0x2C2 JUMPI PUSH3 0x2C2 PUSH3 0x368 JUMP JUMPDEST PUSH1 0x40 MSTORE DUP3 DUP2 MSTORE DUP6 DUP2 ADD SWAP4 POP DUP5 DUP7 ADD DUP3 DUP7 ADD DUP8 ADD DUP13 LT ISZERO PUSH3 0x2E2 JUMPI PUSH1 0x0 DUP1 REVERT JUMPDEST PUSH1 0x0 SWAP6 POP JUMPDEST DUP4 DUP7 LT ISZERO PUSH3 0x310 JUMPI PUSH3 0x2FB DUP2 PUSH3 0x21B JUMP JUMPDEST DUP6 MSTORE PUSH1 0x1 SWAP6 SWAP1 SWAP6 ADD SWAP5 SWAP4 DUP7 ADD SWAP4 DUP7 ADD PUSH3 0x2E7 JUMP JUMPDEST POP DUP1 SWAP8 POP POP POP POP POP POP POP PUSH1 0x40 DUP5 ADD MLOAD SWAP1 POP SWAP3 POP SWAP3 POP SWAP3 JUMP JUMPDEST PUSH1 0x0 PUSH1 0x0 NOT DUP3 EQ ISZERO PUSH3 0x34B JUMPI PUSH4 0x4E487B71 PUSH1 0xE0 SHL PUSH1 0x0 MSTORE PUSH1 0x11 PUSH1 0x4 MSTORE PUSH1 0x24 PUSH1 0x0 REVERT JUMPDEST POP PUSH1 0x1 ADD SWAP1 JUMP JUMPDEST PUSH4 0x4E487B71 PUSH1 0xE0 SHL PUSH1 0x0 MSTORE PUSH1 0x32 PUSH1 0x4 MSTORE PUSH1 0x24 PUSH1 0x0 REVERT JUMPDEST PUSH4 0x4E487B71 PUSH1 0xE0 SHL PUSH1 0x0 MSTORE PUSH1 0x41 PUSH1 0x4 MSTORE PUSH1 0x24 PUSH1 0x0 REVERT JUMPDEST PUSH2 0x1914 DUP1 PUSH3 0x38E PUSH1 0x0 CODECOPY PUSH1 0x0 RETURN INVALID PUSH1 0x80 PUSH1 0x40 MSTORE PUSH1 0x4 CALLDATASIZE LT PUSH2 0xEC JUMPI PUSH1 0x0 CALLDATALOAD PUSH1 0xE0 SHR DUP1 PUSH4 0x83699275 GT PUSH2 0x8A JUMPI DUP1 PUSH4 0xCE757D29 GT PUSH2 0x59 JUMPI DUP1 PUSH4 0xCE757D29 EQ PUSH2 0x302 JUMPI DUP1 PUSH4 0xD1FBFFA0 EQ PUSH2 0x318 JUMPI DUP1 PUSH4 0xDE4B9E93 EQ PUSH2 0x345 JUMPI DUP1 PUSH4 0xE0A2FF54 EQ PUSH2 0x365 JUMPI PUSH1 0x0 DUP1 REVERT JUMPDEST DUP1 PUSH4 0x83699275 EQ PUSH2 0x25F JUMPI DUP1 PUSH4 0x9A8A0592 EQ PUSH2 0x2B6 JUMPI DUP1 PUSH4 0xA8397DDC EQ PUSH2 0x2CC JUMPI DUP1 PUSH4 0xAFFED0E0 EQ PUSH2 0x2EC JUMPI PUSH1 0x0 DUP1 REVERT JUMPDEST DUP1 PUSH4 0x3034A742 GT PUSH2 0xC6 JUMPI DUP1 PUSH4 0x3034A742 EQ PUSH2 0x1D1 JUMPI DUP1 PUSH4 0x3BAD5426 EQ PUSH2 0x1F1 JUMPI DUP1 PUSH4 0x545A4A3C EQ PUSH2 0x211 JUMPI DUP1 PUSH4 0x65AF1BED EQ PUSH2 0x23F JUMPI PUSH1 0x0 DUP1 REVERT JUMPDEST DUP1 PUSH4 0x19045A25 EQ PUSH2 0x132 JUMPI DUP1 PUSH4 0x2A387D5D EQ PUSH2 0x16F JUMPI DUP1 PUSH4 0x2F54BF6E EQ PUSH2 0x191 JUMPI PUSH1 0x0 DUP1 REVERT JUMPDEST CALLDATASIZE PUSH2 0x12D JUMPI PUSH1 0x40 DUP1 MLOAD CALLVALUE DUP2 MSTORE SELFBALANCE PUSH1 0x20 DUP3 ADD MSTORE CALLER SWAP2 PUSH32 0x90890809C654F11D6E72A28FA60149770A0D11EC6C92319D6CEB2BB0A4EA1A15 SWAP2 ADD PUSH1 0x40 MLOAD DUP1 SWAP2 SUB SWAP1 LOG2 STOP JUMPDEST PUSH1 0x0 DUP1 REVERT JUMPDEST CALLVALUE DUP1 ISZERO PUSH2 0x13E JUMPI PUSH1 0x0 DUP1 REVERT JUMPDEST POP PUSH2 0x152 PUSH2 0x14D CALLDATASIZE PUSH1 0x4 PUSH2 0x1526 JUMP JUMPDEST PUSH2 0x385 JUMP JUMPDEST PUSH1 0x40 MLOAD PUSH1 0x1 PUSH1 0x1 PUSH1 0xA0 SHL SUB SWAP1 SWAP2 AND DUP2 MSTORE PUSH1 0x20 ADD JUMPDEST PUSH1 0x40 MLOAD DUP1 SWAP2 SUB SWAP1 RETURN JUMPDEST CALLVALUE DUP1 ISZERO PUSH2 0x17B JUMPI PUSH1 0x0 DUP1 REVERT JUMPDEST POP PUSH2 0x18F PUSH2 0x18A CALLDATASIZE PUSH1 0x4 PUSH2 0x14F1 JUMP JUMPDEST PUSH2 0x3EF JUMP JUMPDEST STOP JUMPDEST CALLVALUE DUP1 ISZERO PUSH2 0x19D JUMPI PUSH1 0x0 DUP1 REVERT JUMPDEST POP PUSH2 0x1C1 PUSH2 0x1AC CALLDATASIZE PUSH1 0x4 PUSH2 0x139F JUMP JUMPDEST PUSH1 0x0 PUSH1 0x20 DUP2 SWAP1 MSTORE SWAP1 DUP2 MSTORE PUSH1 0x40 SWAP1 KECCAK256 SLOAD PUSH1 0xFF AND DUP2 JUMP JUMPDEST PUSH1 0x40 MLOAD SWAP1 ISZERO ISZERO DUP2 MSTORE PUSH1 0x20 ADD PUSH2 0x166 JUMP JUMPDEST CALLVALUE DUP1 ISZERO PUSH2 0x1DD JUMPI PUSH1 0x0 DUP1 REVERT JUMPDEST POP PUSH2 0x18F PUSH2 0x1EC CALLDATASIZE PUSH1 0x4 PUSH2 0x156D JUMP JUMPDEST PUSH2 0x57D JUMP JUMPDEST CALLVALUE DUP1 ISZERO PUSH2 0x1FD JUMPI PUSH1 0x0 DUP1 REVERT JUMPDEST POP PUSH2 0x18F PUSH2 0x20C CALLDATASIZE PUSH1 0x4 PUSH2 0x14C5 JUMP JUMPDEST PUSH2 0x617 JUMP JUMPDEST CALLVALUE DUP1 ISZERO PUSH2 0x21D JUMPI PUSH1 0x0 DUP1 REVERT JUMPDEST POP PUSH2 0x231 PUSH2 0x22C CALLDATASIZE PUSH1 0x4 PUSH2 0x1586 JUMP JUMPDEST PUSH2 0x766 JUMP JUMPDEST PUSH1 0x40 MLOAD SWAP1 DUP2 MSTORE PUSH1 0x20 ADD PUSH2 0x166 JUMP JUMPDEST CALLVALUE DUP1 ISZERO PUSH2 0x24B JUMPI PUSH1 0x0 DUP1 REVERT JUMPDEST POP PUSH2 0x18F PUSH2 0x25A CALLDATASIZE PUSH1 0x4 PUSH2 0x14C5 JUMP JUMPDEST PUSH2 0x7A5 JUMP JUMPDEST CALLVALUE DUP1 ISZERO PUSH2 0x26B JUMPI PUSH1 0x0 DUP1 REVERT JUMPDEST POP PUSH2 0x29B PUSH2 0x27A CALLDATASIZE PUSH1 0x4 PUSH2 0x139F JUMP JUMPDEST PUSH1 0x4 PUSH1 0x20 MSTORE PUSH1 0x0 SWAP1 DUP2 MSTORE PUSH1 0x40 SWAP1 KECCAK256 DUP1 SLOAD PUSH1 0x1 DUP3 ADD SLOAD PUSH1 0x2 SWAP1 SWAP3 ADD SLOAD SWAP1 SWAP2 SWAP1 DUP4 JUMP JUMPDEST PUSH1 0x40 DUP1 MLOAD SWAP4 DUP5 MSTORE PUSH1 0x20 DUP5 ADD SWAP3 SWAP1 SWAP3 MSTORE SWAP1 DUP3 ADD MSTORE PUSH1 0x60 ADD PUSH2 0x166 JUMP JUMPDEST CALLVALUE DUP1 ISZERO PUSH2 0x2C2 JUMPI PUSH1 0x0 DUP1 REVERT JUMPDEST POP PUSH2 0x231 PUSH1 0x3 SLOAD DUP2 JUMP JUMPDEST CALLVALUE DUP1 ISZERO PUSH2 0x2D8 JUMPI PUSH1 0x0 DUP1 REVERT JUMPDEST POP PUSH2 0x18F PUSH2 0x2E7 CALLDATASIZE PUSH1 0x4 PUSH2 0x15E9 JUMP JUMPDEST PUSH2 0x943 JUMP JUMPDEST CALLVALUE DUP1 ISZERO PUSH2 0x2F8 JUMPI PUSH1 0x0 DUP1 REVERT JUMPDEST POP PUSH2 0x231 PUSH1 0x2 SLOAD DUP2 JUMP JUMPDEST CALLVALUE DUP1 ISZERO PUSH2 0x30E JUMPI PUSH1 0x0 DUP1 REVERT JUMPDEST POP PUSH2 0x231 PUSH1 0x1 SLOAD DUP2 JUMP JUMPDEST CALLVALUE DUP1 ISZERO PUSH2 0x324 JUMPI PUSH1 0x0 DUP1 REVERT JUMPDEST POP PUSH2 0x338 PUSH2 0x333 CALLDATASIZE PUSH1 0x4 PUSH2 0x13BC JUMP JUMPDEST PUSH2 0x9AE JUMP JUMPDEST PUSH1 0x40 MLOAD PUSH2 0x166 SWAP2 SWAP1 PUSH2 0x172F JUMP JUMPDEST CALLVALUE DUP1 ISZERO PUSH2 0x351 JUMPI PUSH1 0x0 DUP1 REVERT JUMPDEST POP PUSH2 0x18F PUSH2 0x360 CALLDATASIZE PUSH1 0x4 PUSH2 0x139F JUMP JUMPDEST PUSH2 0xCC8 JUMP JUMPDEST CALLVALUE DUP1 ISZERO PUSH2 0x371 JUMPI PUSH1 0x0 DUP1 REVERT JUMPDEST POP PUSH2 0x231 PUSH2 0x380 CALLDATASIZE PUSH1 0x4 PUSH2 0x139F JUMP JUMPDEST PUSH2 0xE00 JUMP JUMPDEST PUSH1 0x0 PUSH2 0x3E8 DUP3 PUSH2 0x3E2 DUP6 PUSH1 0x40 MLOAD PUSH32 0x19457468657265756D205369676E6564204D6573736167653A0A333200000000 PUSH1 0x20 DUP3 ADD MSTORE PUSH1 0x3C DUP2 ADD DUP3 SWAP1 MSTORE PUSH1 0x0 SWAP1 PUSH1 0x5C ADD PUSH1 0x40 MLOAD PUSH1 0x20 DUP2 DUP4 SUB SUB DUP2 MSTORE SWAP1 PUSH1 0x40 MSTORE DUP1 MLOAD SWAP1 PUSH1 0x20 ADD KECCAK256 SWAP1 POP SWAP2 SWAP1 POP JUMP JUMPDEST SWAP1 PUSH2 0xE60 JUMP JUMPDEST SWAP4 SWAP3 POP POP POP JUMP JUMPDEST CALLER ADDRESS EQ PUSH2 0x417 JUMPI PUSH1 0x40 MLOAD PUSH3 0x461BCD PUSH1 0xE5 SHL DUP2 MSTORE PUSH1 0x4 ADD PUSH2 0x40E SWAP1 PUSH2 0x1742 JUMP JUMPDEST PUSH1 0x40 MLOAD DUP1 SWAP2 SUB SWAP1 REVERT JUMPDEST PUSH1 0x1 PUSH1 0x1 PUSH1 0xA0 SHL SUB DUP4 AND PUSH1 0x0 SWAP1 DUP2 MSTORE PUSH1 0x4 PUSH1 0x20 MSTORE PUSH1 0x40 SWAP1 KECCAK256 SLOAD ISZERO PUSH2 0x47D JUMPI PUSH1 0x40 MLOAD PUSH3 0x461BCD PUSH1 0xE5 SHL DUP2 MSTORE PUSH1 0x20 PUSH1 0x4 DUP3 ADD MSTORE PUSH1 0x1F PUSH1 0x24 DUP3 ADD MSTORE PUSH32 0x6F70656E53747265616D3A2073747265616D20616C7265616479206F70656E00 PUSH1 0x44 DUP3 ADD MSTORE PUSH1 0x64 ADD PUSH2 0x40E JUMP JUMPDEST PUSH1 0x0 DUP3 GT PUSH2 0x4C5 JUMPI PUSH1 0x40 MLOAD PUSH3 0x461BCD PUSH1 0xE5 SHL DUP2 MSTORE PUSH1 0x20 PUSH1 0x4 DUP3 ADD MSTORE PUSH1 0x15 PUSH1 0x24 DUP3 ADD MSTORE PUSH21 0x1BDC195B94DD1C99585B4E881B9BC8185B5BDD5B9D PUSH1 0x5A SHL PUSH1 0x44 DUP3 ADD MSTORE PUSH1 0x64 ADD PUSH2 0x40E JUMP JUMPDEST PUSH1 0x0 DUP2 GT PUSH2 0x515 JUMPI PUSH1 0x40 MLOAD PUSH3 0x461BCD PUSH1 0xE5 SHL DUP2 MSTORE PUSH1 0x20 PUSH1 0x4 DUP3 ADD MSTORE PUSH1 0x18 PUSH1 0x24 DUP3 ADD MSTORE PUSH32 0x6F70656E53747265616D3A206E6F206672657175656E63790000000000000000 PUSH1 0x44 DUP3 ADD MSTORE PUSH1 0x64 ADD PUSH2 0x40E JUMP JUMPDEST PUSH1 0x1 PUSH1 0x1 PUSH1 0xA0 SHL SUB DUP4 AND PUSH1 0x0 DUP2 DUP2 MSTORE PUSH1 0x4 PUSH1 0x20 SWAP1 DUP2 MSTORE PUSH1 0x40 SWAP2 DUP3 SWAP1 KECCAK256 DUP6 DUP2 SSTORE PUSH1 0x1 DUP2 ADD DUP6 SWAP1 SSTORE TIMESTAMP PUSH1 0x2 SWAP1 SWAP2 ADD SSTORE DUP2 MLOAD DUP6 DUP2 MSTORE SWAP1 DUP2 ADD DUP5 SWAP1 MSTORE PUSH32 0x81236F9EB471668CF00861415085DACE409D719678881C59B03E49683BBEF716 SWAP2 ADD PUSH1 0x40 MLOAD DUP1 SWAP2 SUB SWAP1 LOG2 POP POP POP JUMP JUMPDEST CALLER ADDRESS EQ PUSH2 0x59C JUMPI PUSH1 0x40 MLOAD PUSH3 0x461BCD PUSH1 0xE5 SHL DUP2 MSTORE PUSH1 0x4 ADD PUSH2 0x40E SWAP1 PUSH2 0x1742 JUMP JUMPDEST PUSH1 0x0 DUP2 GT PUSH2 0x612 JUMPI PUSH1 0x40 MLOAD PUSH3 0x461BCD PUSH1 0xE5 SHL DUP2 MSTORE PUSH1 0x20 PUSH1 0x4 DUP3 ADD MSTORE PUSH1 0x38 PUSH1 0x24 DUP3 ADD MSTORE PUSH32 0x7570646174655369676E61747572657352657175697265643A206D7573742062 PUSH1 0x44 DUP3 ADD MSTORE PUSH32 0x65206E6F6E2D7A65726F20736967732072657175697265640000000000000000 PUSH1 0x64 DUP3 ADD MSTORE PUSH1 0x84 ADD PUSH2 0x40E JUMP JUMPDEST PUSH1 0x1 SSTORE JUMP JUMPDEST CALLER ADDRESS EQ PUSH2 0x636 JUMPI PUSH1 0x40 MLOAD PUSH3 0x461BCD PUSH1 0xE5 SHL DUP2 MSTORE PUSH1 0x4 ADD PUSH2 0x40E SWAP1 PUSH2 0x1742 JUMP JUMPDEST PUSH1 0x1 PUSH1 0x1 PUSH1 0xA0 SHL SUB DUP3 AND PUSH1 0x0 SWAP1 DUP2 MSTORE PUSH1 0x20 DUP2 SWAP1 MSTORE PUSH1 0x40 SWAP1 KECCAK256 SLOAD PUSH1 0xFF AND PUSH2 0x69E JUMPI PUSH1 0x40 MLOAD PUSH3 0x461BCD PUSH1 0xE5 SHL DUP2 MSTORE PUSH1 0x20 PUSH1 0x4 DUP3 ADD MSTORE PUSH1 0x17 PUSH1 0x24 DUP3 ADD MSTORE PUSH32 0x72656D6F76655369676E65723A206E6F74206F776E6572000000000000000000 PUSH1 0x44 DUP3 ADD MSTORE PUSH1 0x64 ADD PUSH2 0x40E JUMP JUMPDEST PUSH1 0x0 DUP2 GT PUSH2 0x703 JUMPI PUSH1 0x40 MLOAD PUSH3 0x461BCD PUSH1 0xE5 SHL DUP2 MSTORE PUSH1 0x20 PUSH1 0x4 DUP3 ADD MSTORE PUSH1 0x2C PUSH1 0x24 DUP3 ADD MSTORE PUSH32 0x72656D6F76655369676E65723A206D757374206265206E6F6E2D7A65726F2073 PUSH1 0x44 DUP3 ADD MSTORE PUSH12 0x1A59DCC81C995C5D5A5C9959 PUSH1 0xA2 SHL PUSH1 0x64 DUP3 ADD MSTORE PUSH1 0x84 ADD PUSH2 0x40E JUMP JUMPDEST PUSH1 0x1 PUSH1 0x1 PUSH1 0xA0 SHL SUB DUP3 AND PUSH1 0x0 DUP2 DUP2 MSTORE PUSH1 0x20 DUP2 DUP2 MSTORE PUSH1 0x40 SWAP2 DUP3 SWAP1 KECCAK256 DUP1 SLOAD PUSH1 0xFF NOT AND DUP2 SSTORE PUSH1 0x1 DUP6 SWAP1 SSTORE SLOAD SWAP2 MLOAD PUSH1 0xFF SWAP1 SWAP3 AND ISZERO ISZERO DUP3 MSTORE PUSH32 0xFE545F48304051C4029EB2DA9927DAA59DA0414B4B084FDCEAF2955B609B899E SWAP2 ADD JUMPDEST PUSH1 0x40 MLOAD DUP1 SWAP2 SUB SWAP1 LOG2 POP POP JUMP JUMPDEST PUSH1 0x0 ADDRESS PUSH1 0x3 SLOAD DUP7 DUP7 DUP7 DUP7 PUSH1 0x40 MLOAD PUSH1 0x20 ADD PUSH2 0x785 SWAP7 SWAP6 SWAP5 SWAP4 SWAP3 SWAP2 SWAP1 PUSH2 0x1666 JUMP JUMPDEST PUSH1 0x40 MLOAD PUSH1 0x20 DUP2 DUP4 SUB SUB DUP2 MSTORE SWAP1 PUSH1 0x40 MSTORE DUP1 MLOAD SWAP1 PUSH1 0x20 ADD KECCAK256 SWAP1 POP SWAP5 SWAP4 POP POP POP POP JUMP JUMPDEST CALLER ADDRESS EQ PUSH2 0x7C4 JUMPI PUSH1 0x40 MLOAD PUSH3 0x461BCD PUSH1 0xE5 SHL DUP2 MSTORE PUSH1 0x4 ADD PUSH2 0x40E SWAP1 PUSH2 0x1742 JUMP JUMPDEST PUSH1 0x1 PUSH1 0x1 PUSH1 0xA0 SHL SUB DUP3 AND PUSH2 0x81A JUMPI PUSH1 0x40 MLOAD PUSH3 0x461BCD PUSH1 0xE5 SHL DUP2 MSTORE PUSH1 0x20 PUSH1 0x4 DUP3 ADD MSTORE PUSH1 0x17 PUSH1 0x24 DUP3 ADD MSTORE PUSH32 0x6164645369676E65723A207A65726F2061646472657373000000000000000000 PUSH1 0x44 DUP3 ADD MSTORE PUSH1 0x64 ADD PUSH2 0x40E JUMP JUMPDEST PUSH1 0x1 PUSH1 0x1 PUSH1 0xA0 SHL SUB DUP3 AND PUSH1 0x0 SWAP1 DUP2 MSTORE PUSH1 0x20 DUP2 SWAP1 MSTORE PUSH1 0x40 SWAP1 KECCAK256 SLOAD PUSH1 0xFF AND ISZERO PUSH2 0x883 JUMPI PUSH1 0x40 MLOAD PUSH3 0x461BCD PUSH1 0xE5 SHL DUP2 MSTORE PUSH1 0x20 PUSH1 0x4 DUP3 ADD MSTORE PUSH1 0x1B PUSH1 0x24 DUP3 ADD MSTORE PUSH32 0x6164645369676E65723A206F776E6572206E6F7420756E697175650000000000 PUSH1 0x44 DUP3 ADD MSTORE PUSH1 0x64 ADD PUSH2 0x40E JUMP JUMPDEST PUSH1 0x0 DUP2 GT PUSH2 0x8E5 JUMPI PUSH1 0x40 MLOAD PUSH3 0x461BCD PUSH1 0xE5 SHL DUP2 MSTORE PUSH1 0x20 PUSH1 0x4 DUP3 ADD MSTORE PUSH1 0x29 PUSH1 0x24 DUP3 ADD MSTORE PUSH32 0x6164645369676E65723A206D757374206265206E6F6E2D7A65726F2073696773 PUSH1 0x44 DUP3 ADD MSTORE PUSH9 0x81C995C5D5A5C9959 PUSH1 0xBA SHL PUSH1 0x64 DUP3 ADD MSTORE PUSH1 0x84 ADD PUSH2 0x40E JUMP JUMPDEST PUSH1 0x1 PUSH1 0x1 PUSH1 0xA0 SHL SUB DUP3 AND PUSH1 0x0 DUP2 DUP2 MSTORE PUSH1 0x20 DUP2 DUP2 MSTORE PUSH1 0x40 SWAP2 DUP3 SWAP1 KECCAK256 DUP1 SLOAD PUSH1 0xFF NOT AND PUSH1 0x1 SWAP1 DUP2 OR DUP3 SSTORE DUP6 SWAP1 SSTORE SLOAD SWAP2 MLOAD PUSH1 0xFF SWAP1 SWAP3 AND ISZERO ISZERO DUP3 MSTORE PUSH32 0xFE545F48304051C4029EB2DA9927DAA59DA0414B4B084FDCEAF2955B609B899E SWAP2 ADD PUSH2 0x75A JUMP JUMPDEST CALLER PUSH1 0x0 SWAP1 DUP2 MSTORE PUSH1 0x4 PUSH1 0x20 MSTORE PUSH1 0x40 SWAP1 KECCAK256 SLOAD PUSH2 0x99F JUMPI PUSH1 0x40 MLOAD PUSH3 0x461BCD PUSH1 0xE5 SHL DUP2 MSTORE PUSH1 0x20 PUSH1 0x4 DUP3 ADD MSTORE PUSH1 0x18 PUSH1 0x24 DUP3 ADD MSTORE PUSH32 0x77697468647261773A206E6F206F70656E2073747265616D0000000000000000 PUSH1 0x44 DUP3 ADD MSTORE PUSH1 0x64 ADD PUSH2 0x40E JUMP JUMPDEST PUSH2 0x9AA CALLER DUP4 DUP4 PUSH2 0xE84 JUMP JUMPDEST POP POP JUMP JUMPDEST CALLER PUSH1 0x0 SWAP1 DUP2 MSTORE PUSH1 0x20 DUP2 SWAP1 MSTORE PUSH1 0x40 SWAP1 KECCAK256 SLOAD PUSH1 0x60 SWAP1 PUSH1 0xFF AND PUSH2 0xA24 JUMPI PUSH1 0x40 MLOAD PUSH3 0x461BCD PUSH1 0xE5 SHL DUP2 MSTORE PUSH1 0x20 PUSH1 0x4 DUP3 ADD MSTORE PUSH1 0x2B PUSH1 0x24 DUP3 ADD MSTORE PUSH32 0x657865637574655472616E73616374696F6E3A206F6E6C79206F776E65727320 PUSH1 0x44 DUP3 ADD MSTORE PUSH11 0x63616E2065786563757465 PUSH1 0xA8 SHL PUSH1 0x64 DUP3 ADD MSTORE PUSH1 0x84 ADD PUSH2 0x40E JUMP JUMPDEST PUSH1 0x0 PUSH2 0xA34 PUSH1 0x2 SLOAD DUP8 DUP8 DUP8 PUSH2 0x766 JUMP JUMPDEST PUSH1 0x2 DUP1 SLOAD SWAP2 SWAP3 POP PUSH1 0x0 PUSH2 0xA46 DUP4 PUSH2 0x1856 JUMP JUMPDEST SWAP2 SWAP1 POP SSTORE POP PUSH1 0x0 DUP1 PUSH1 0x0 JUMPDEST DUP6 MLOAD DUP2 LT ISZERO PUSH2 0xB47 JUMPI PUSH1 0x0 PUSH2 0xA7F DUP6 DUP9 DUP5 DUP2 MLOAD DUP2 LT PUSH2 0xA72 JUMPI PUSH2 0xA72 PUSH2 0x189D JUMP JUMPDEST PUSH1 0x20 MUL PUSH1 0x20 ADD ADD MLOAD PUSH2 0x385 JUMP JUMPDEST SWAP1 POP DUP3 PUSH1 0x1 PUSH1 0x1 PUSH1 0xA0 SHL SUB AND DUP2 PUSH1 0x1 PUSH1 0x1 PUSH1 0xA0 SHL SUB AND GT PUSH2 0xB00 JUMPI PUSH1 0x40 MLOAD PUSH3 0x461BCD PUSH1 0xE5 SHL DUP2 MSTORE PUSH1 0x20 PUSH1 0x4 DUP3 ADD MSTORE PUSH1 0x35 PUSH1 0x24 DUP3 ADD MSTORE PUSH32 0x657865637574655472616E73616374696F6E3A206475706C6963617465206F72 PUSH1 0x44 DUP3 ADD MSTORE PUSH21 0x20756E6F726465726564207369676E617475726573 PUSH1 0x58 SHL PUSH1 0x64 DUP3 ADD MSTORE PUSH1 0x84 ADD PUSH2 0x40E JUMP JUMPDEST PUSH1 0x1 PUSH1 0x1 PUSH1 0xA0 SHL SUB DUP2 AND PUSH1 0x0 SWAP1 DUP2 MSTORE PUSH1 0x20 DUP2 SWAP1 MSTORE PUSH1 0x40 SWAP1 KECCAK256 SLOAD SWAP1 SWAP3 POP DUP3 SWAP1 PUSH1 0xFF AND ISZERO PUSH2 0xB34 JUMPI DUP4 PUSH2 0xB30 DUP2 PUSH2 0x1856 JUMP JUMPDEST SWAP5 POP POP JUMPDEST POP DUP1 PUSH2 0xB3F DUP2 PUSH2 0x1856 JUMP JUMPDEST SWAP2 POP POP PUSH2 0xA51 JUMP JUMPDEST POP PUSH1 0x1 SLOAD DUP3 LT ISZERO PUSH2 0xBB2 JUMPI PUSH1 0x40 MLOAD PUSH3 0x461BCD PUSH1 0xE5 SHL DUP2 MSTORE PUSH1 0x20 PUSH1 0x4 DUP3 ADD MSTORE PUSH1 0x2F PUSH1 0x24 DUP3 ADD MSTORE PUSH32 0x657865637574655472616E73616374696F6E3A206E6F7420656E6F7567682076 PUSH1 0x44 DUP3 ADD MSTORE PUSH15 0x616C6964207369676E617475726573 PUSH1 0x88 SHL PUSH1 0x64 DUP3 ADD MSTORE PUSH1 0x84 ADD PUSH2 0x40E JUMP JUMPDEST PUSH1 0x0 DUP1 DUP10 PUSH1 0x1 PUSH1 0x1 PUSH1 0xA0 SHL SUB AND DUP10 DUP10 PUSH1 0x40 MLOAD PUSH2 0xBCE SWAP2 SWAP1 PUSH2 0x16C1 JUMP JUMPDEST PUSH1 0x0 PUSH1 0x40 MLOAD DUP1 DUP4 SUB DUP2 DUP6 DUP8 GAS CALL SWAP3 POP POP POP RETURNDATASIZE DUP1 PUSH1 0x0 DUP2 EQ PUSH2 0xC0B JUMPI PUSH1 0x40 MLOAD SWAP2 POP PUSH1 0x1F NOT PUSH1 0x3F RETURNDATASIZE ADD AND DUP3 ADD PUSH1 0x40 MSTORE RETURNDATASIZE DUP3 MSTORE RETURNDATASIZE PUSH1 0x0 PUSH1 0x20 DUP5 ADD RETURNDATACOPY PUSH2 0xC10 JUMP JUMPDEST PUSH1 0x60 SWAP2 POP JUMPDEST POP SWAP2 POP SWAP2 POP DUP2 PUSH2 0xC62 JUMPI PUSH1 0x40 MLOAD PUSH3 0x461BCD PUSH1 0xE5 SHL DUP2 MSTORE PUSH1 0x20 PUSH1 0x4 DUP3 ADD MSTORE PUSH1 0x1D PUSH1 0x24 DUP3 ADD MSTORE PUSH32 0x657865637574655472616E73616374696F6E3A207478206661696C6564000000 PUSH1 0x44 DUP3 ADD MSTORE PUSH1 0x64 ADD PUSH2 0x40E JUMP JUMPDEST CALLER PUSH1 0x1 PUSH1 0x1 PUSH1 0xA0 SHL SUB AND PUSH32 0x9053E9EC105157FAC8C9308D63E6B22BE5F50FE915A3E567419B624311A02D74 DUP12 DUP12 DUP12 PUSH1 0x1 PUSH1 0x2 SLOAD PUSH2 0xC9F SWAP2 SWAP1 PUSH2 0x180F JUMP JUMPDEST DUP11 DUP8 PUSH1 0x40 MLOAD PUSH2 0xCB3 SWAP7 SWAP6 SWAP5 SWAP4 SWAP3 SWAP2 SWAP1 PUSH2 0x16DD JUMP JUMPDEST PUSH1 0x40 MLOAD DUP1 SWAP2 SUB SWAP1 LOG2 SWAP10 SWAP9 POP POP POP POP POP POP POP POP POP JUMP JUMPDEST CALLER ADDRESS EQ PUSH2 0xCE7 JUMPI PUSH1 0x40 MLOAD PUSH3 0x461BCD PUSH1 0xE5 SHL DUP2 MSTORE PUSH1 0x4 ADD PUSH2 0x40E SWAP1 PUSH2 0x1742 JUMP JUMPDEST PUSH1 0x1 PUSH1 0x1 PUSH1 0xA0 SHL SUB DUP2 AND PUSH1 0x0 SWAP1 DUP2 MSTORE PUSH1 0x4 PUSH1 0x20 MSTORE PUSH1 0x40 SWAP1 KECCAK256 SLOAD PUSH2 0xD57 JUMPI PUSH1 0x40 MLOAD PUSH3 0x461BCD PUSH1 0xE5 SHL DUP2 MSTORE PUSH1 0x20 PUSH1 0x4 DUP3 ADD MSTORE PUSH1 0x22 PUSH1 0x24 DUP3 ADD MSTORE PUSH32 0x636C6F736553747265616D3A2073747265616D20616C726561647920636C6F73 PUSH1 0x44 DUP3 ADD MSTORE PUSH2 0x1959 PUSH1 0xF2 SHL PUSH1 0x64 DUP3 ADD MSTORE PUSH1 0x84 ADD PUSH2 0x40E JUMP JUMPDEST PUSH2 0xDAF DUP2 PUSH1 0x4 PUSH1 0x0 DUP5 PUSH1 0x1 PUSH1 0x1 PUSH1 0xA0 SHL SUB AND PUSH1 0x1 PUSH1 0x1 PUSH1 0xA0 SHL SUB AND DUP2 MSTORE PUSH1 0x20 ADD SWAP1 DUP2 MSTORE PUSH1 0x20 ADD PUSH1 0x0 KECCAK256 PUSH1 0x0 ADD SLOAD PUSH1 0x40 MLOAD DUP1 PUSH1 0x40 ADD PUSH1 0x40 MSTORE DUP1 PUSH1 0xD DUP2 MSTORE PUSH1 0x20 ADD PUSH13 0x1CDD1C99585B4818DB1BDCD959 PUSH1 0x9A SHL DUP2 MSTORE POP PUSH2 0xE84 JUMP JUMPDEST PUSH1 0x1 PUSH1 0x1 PUSH1 0xA0 SHL SUB DUP2 AND PUSH1 0x0 DUP2 DUP2 MSTORE PUSH1 0x4 PUSH1 0x20 MSTORE PUSH1 0x40 DUP1 DUP3 KECCAK256 DUP3 DUP2 SSTORE PUSH1 0x1 DUP2 ADD DUP4 SWAP1 SSTORE PUSH1 0x2 ADD DUP3 SWAP1 SSTORE MLOAD PUSH32 0xCC362A45D32C94D02A329570BD5935709D77F6DC79AC6AFA5107B513642461C2 SWAP2 SWAP1 LOG2 POP JUMP JUMPDEST PUSH1 0x1 PUSH1 0x1 PUSH1 0xA0 SHL SUB DUP2 AND PUSH1 0x0 SWAP1 DUP2 MSTORE PUSH1 0x4 PUSH1 0x20 MSTORE PUSH1 0x40 DUP2 KECCAK256 PUSH1 0x1 DUP2 ADD SLOAD PUSH1 0x2 SWAP1 SWAP2 ADD SLOAD PUSH2 0xE2D SWAP1 TIMESTAMP PUSH2 0x180F JUMP JUMPDEST PUSH1 0x1 PUSH1 0x1 PUSH1 0xA0 SHL SUB DUP5 AND PUSH1 0x0 SWAP1 DUP2 MSTORE PUSH1 0x4 PUSH1 0x20 MSTORE PUSH1 0x40 SWAP1 KECCAK256 SLOAD PUSH2 0xE50 SWAP2 SWAP1 PUSH2 0x17F0 JUMP JUMPDEST PUSH2 0xE5A SWAP2 SWAP1 PUSH2 0x17CE JUMP JUMPDEST SWAP3 SWAP2 POP POP JUMP JUMPDEST PUSH1 0x0 DUP1 PUSH1 0x0 PUSH2 0xE6F DUP6 DUP6 PUSH2 0xFD3 JUMP JUMPDEST SWAP2 POP SWAP2 POP PUSH2 0xE7C DUP2 PUSH2 0x1043 JUMP JUMPDEST POP SWAP4 SWAP3 POP POP POP JUMP JUMPDEST PUSH1 0x0 PUSH2 0xE8F DUP5 PUSH2 0xE00 JUMP JUMPDEST SWAP1 POP DUP3 DUP2 LT ISZERO PUSH2 0xED8 JUMPI PUSH1 0x40 MLOAD PUSH3 0x461BCD PUSH1 0xE5 SHL DUP2 MSTORE PUSH1 0x20 PUSH1 0x4 DUP3 ADD MSTORE PUSH1 0x14 PUSH1 0x24 DUP3 ADD MSTORE PUSH20 0xEED2E8D0C8E4C2EE7440DCDEE840CADCDEEACED PUSH1 0x63 SHL PUSH1 0x44 DUP3 ADD MSTORE PUSH1 0x64 ADD PUSH2 0x40E JUMP JUMPDEST PUSH1 0x1 PUSH1 0x1 PUSH1 0xA0 SHL SUB DUP5 AND PUSH1 0x0 SWAP1 DUP2 MSTORE PUSH1 0x4 PUSH1 0x20 MSTORE PUSH1 0x40 SWAP1 KECCAK256 PUSH1 0x2 ADD SLOAD DUP2 SWAP1 DUP5 SWAP1 PUSH2 0xF02 SWAP1 TIMESTAMP PUSH2 0x180F JUMP JUMPDEST PUSH2 0xF0C SWAP2 SWAP1 PUSH2 0x17F0 JUMP JUMPDEST PUSH2 0xF16 SWAP2 SWAP1 PUSH2 0x17CE JUMP JUMPDEST PUSH1 0x1 PUSH1 0x1 PUSH1 0xA0 SHL SUB DUP6 AND PUSH1 0x0 SWAP1 DUP2 MSTORE PUSH1 0x4 PUSH1 0x20 MSTORE PUSH1 0x40 SWAP1 KECCAK256 PUSH1 0x2 ADD SLOAD PUSH2 0xF3C SWAP2 SWAP1 PUSH2 0x17B6 JUMP JUMPDEST PUSH1 0x1 PUSH1 0x1 PUSH1 0xA0 SHL SUB DUP6 AND PUSH1 0x0 DUP2 DUP2 MSTORE PUSH1 0x4 PUSH1 0x20 MSTORE PUSH1 0x40 SWAP1 DUP2 SWAP1 KECCAK256 PUSH1 0x2 ADD SWAP3 SWAP1 SWAP3 SSTORE SWAP1 MLOAD PUSH32 0x485F1BB6524C663555797E00171A10F341656E59B02D6B557A0A38BA7D5D9751 SWAP1 PUSH2 0xF8E SWAP1 DUP7 SWAP1 DUP7 SWAP1 PUSH2 0x1764 JUMP JUMPDEST PUSH1 0x40 MLOAD DUP1 SWAP2 SUB SWAP1 LOG2 PUSH1 0x40 MLOAD PUSH1 0x1 PUSH1 0x1 PUSH1 0xA0 SHL SUB DUP6 AND SWAP1 DUP5 ISZERO PUSH2 0x8FC MUL SWAP1 DUP6 SWAP1 PUSH1 0x0 DUP2 DUP2 DUP2 DUP6 DUP9 DUP9 CALL SWAP4 POP POP POP POP ISZERO DUP1 ISZERO PUSH2 0xFCC JUMPI RETURNDATASIZE PUSH1 0x0 DUP1 RETURNDATACOPY RETURNDATASIZE PUSH1 0x0 REVERT JUMPDEST POP POP POP POP POP JUMP JUMPDEST PUSH1 0x0 DUP1 DUP3 MLOAD PUSH1 0x41 EQ ISZERO PUSH2 0x100A JUMPI PUSH1 0x20 DUP4 ADD MLOAD PUSH1 0x40 DUP5 ADD MLOAD PUSH1 0x60 DUP6 ADD MLOAD PUSH1 0x0 BYTE PUSH2 0xFFE DUP8 DUP3 DUP6 DUP6 PUSH2 0x1201 JUMP JUMPDEST SWAP5 POP SWAP5 POP POP POP POP PUSH2 0x103C JUMP JUMPDEST DUP3 MLOAD PUSH1 0x40 EQ ISZERO PUSH2 0x1034 JUMPI PUSH1 0x20 DUP4 ADD MLOAD PUSH1 0x40 DUP5 ADD MLOAD PUSH2 0x1029 DUP7 DUP4 DUP4 PUSH2 0x12EE JUMP JUMPDEST SWAP4 POP SWAP4 POP POP POP PUSH2 0x103C JUMP JUMPDEST POP PUSH1 0x0 SWAP1 POP PUSH1 0x2 JUMPDEST SWAP3 POP SWAP3 SWAP1 POP JUMP JUMPDEST PUSH1 0x0 DUP2 PUSH1 0x4 DUP2 GT ISZERO PUSH2 0x1057 JUMPI PUSH2 0x1057 PUSH2 0x1887 JUMP JUMPDEST EQ ISZERO PUSH2 0x1060 JUMPI POP JUMP JUMPDEST PUSH1 0x1 DUP2 PUSH1 0x4 DUP2 GT ISZERO PUSH2 0x1074 JUMPI PUSH2 0x1074 PUSH2 0x1887 JUMP JUMPDEST EQ ISZERO PUSH2 0x10C2 JUMPI PUSH1 0x40 MLOAD PUSH3 0x461BCD PUSH1 0xE5 SHL DUP2 MSTORE PUSH1 0x20 PUSH1 0x4 DUP3 ADD MSTORE PUSH1 0x18 PUSH1 0x24 DUP3 ADD MSTORE PUSH32 0x45434453413A20696E76616C6964207369676E61747572650000000000000000 PUSH1 0x44 DUP3 ADD MSTORE PUSH1 0x64 ADD PUSH2 0x40E JUMP JUMPDEST PUSH1 0x2 DUP2 PUSH1 0x4 DUP2 GT ISZERO PUSH2 0x10D6 JUMPI PUSH2 0x10D6 PUSH2 0x1887 JUMP JUMPDEST EQ ISZERO PUSH2 0x1124 JUMPI PUSH1 0x40 MLOAD PUSH3 0x461BCD PUSH1 0xE5 SHL DUP2 MSTORE PUSH1 0x20 PUSH1 0x4 DUP3 ADD MSTORE PUSH1 0x1F PUSH1 0x24 DUP3 ADD MSTORE PUSH32 0x45434453413A20696E76616C6964207369676E6174757265206C656E67746800 PUSH1 0x44 DUP3 ADD MSTORE PUSH1 0x64 ADD PUSH2 0x40E JUMP JUMPDEST PUSH1 0x3 DUP2 PUSH1 0x4 DUP2 GT ISZERO PUSH2 0x1138 JUMPI PUSH2 0x1138 PUSH2 0x1887 JUMP JUMPDEST EQ ISZERO PUSH2 0x1191 JUMPI PUSH1 0x40 MLOAD PUSH3 0x461BCD PUSH1 0xE5 SHL DUP2 MSTORE PUSH1 0x20 PUSH1 0x4 DUP3 ADD MSTORE PUSH1 0x22 PUSH1 0x24 DUP3 ADD MSTORE PUSH32 0x45434453413A20696E76616C6964207369676E6174757265202773272076616C PUSH1 0x44 DUP3 ADD MSTORE PUSH2 0x7565 PUSH1 0xF0 SHL PUSH1 0x64 DUP3 ADD MSTORE PUSH1 0x84 ADD PUSH2 0x40E JUMP JUMPDEST PUSH1 0x4 DUP2 PUSH1 0x4 DUP2 GT ISZERO PUSH2 0x11A5 JUMPI PUSH2 0x11A5 PUSH2 0x1887 JUMP JUMPDEST EQ ISZERO PUSH2 0x11FE JUMPI PUSH1 0x40 MLOAD PUSH3 0x461BCD PUSH1 0xE5 SHL DUP2 MSTORE PUSH1 0x20 PUSH1 0x4 DUP3 ADD MSTORE PUSH1 0x22 PUSH1 0x24 DUP3 ADD MSTORE PUSH32 0x45434453413A20696E76616C6964207369676E6174757265202776272076616C PUSH1 0x44 DUP3 ADD MSTORE PUSH2 0x7565 PUSH1 0xF0 SHL PUSH1 0x64 DUP3 ADD MSTORE PUSH1 0x84 ADD PUSH2 0x40E JUMP JUMPDEST POP JUMP JUMPDEST PUSH1 0x0 DUP1 PUSH32 0x7FFFFFFFFFFFFFFFFFFFFFFFFFFFFFFF5D576E7357A4501DDFE92F46681B20A0 DUP4 GT ISZERO PUSH2 0x1238 JUMPI POP PUSH1 0x0 SWAP1 POP PUSH1 0x3 PUSH2 0x12E5 JUMP JUMPDEST DUP5 PUSH1 0xFF AND PUSH1 0x1B EQ ISZERO DUP1 ISZERO PUSH2 0x1250 JUMPI POP DUP5 PUSH1 0xFF AND PUSH1 0x1C EQ ISZERO JUMPDEST ISZERO PUSH2 0x1261 JUMPI POP PUSH1 0x0 SWAP1 POP PUSH1 0x4 PUSH2 0x12E5 JUMP JUMPDEST PUSH1 0x40 DUP1 MLOAD PUSH1 0x0 DUP1 DUP3 MSTORE PUSH1 0x20 DUP3 ADD DUP1 DUP5 MSTORE DUP10 SWAP1 MSTORE PUSH1 0xFF DUP9 AND SWAP3 DUP3 ADD SWAP3 SWAP1 SWAP3 MSTORE PUSH1 0x60 DUP2 ADD DUP7 SWAP1 MSTORE PUSH1 0x80 DUP2 ADD DUP6 SWAP1 MSTORE PUSH1 0x1 SWAP1 PUSH1 0xA0 ADD PUSH1 0x20 PUSH1 0x40 MLOAD PUSH1 0x20 DUP2 SUB SWAP1 DUP1 DUP5 SUB SWAP1 DUP6 GAS STATICCALL ISZERO DUP1 ISZERO PUSH2 0x12B5 JUMPI RETURNDATASIZE PUSH1 0x0 DUP1 RETURNDATACOPY RETURNDATASIZE PUSH1 0x0 REVERT JUMPDEST POP POP PUSH1 0x40 MLOAD PUSH1 0x1F NOT ADD MLOAD SWAP2 POP POP PUSH1 0x1 PUSH1 0x1 PUSH1 0xA0 SHL SUB DUP2 AND PUSH2 0x12DE JUMPI PUSH1 0x0 PUSH1 0x1 SWAP3 POP SWAP3 POP POP PUSH2 0x12E5 JUMP JUMPDEST SWAP2 POP PUSH1 0x0 SWAP1 POP JUMPDEST SWAP5 POP SWAP5 SWAP3 POP POP POP JUMP JUMPDEST PUSH1 0x0 DUP1 PUSH1 0x1 PUSH1 0x1 PUSH1 0xFF SHL SUB DUP4 AND DUP2 PUSH2 0x130B PUSH1 0xFF DUP7 SWAP1 SHR PUSH1 0x1B PUSH2 0x17B6 JUMP JUMPDEST SWAP1 POP PUSH2 0x1319 DUP8 DUP3 DUP9 DUP6 PUSH2 0x1201 JUMP JUMPDEST SWAP4 POP SWAP4 POP POP POP SWAP4 POP SWAP4 SWAP2 POP POP JUMP JUMPDEST PUSH1 0x0 PUSH8 0xFFFFFFFFFFFFFFFF DUP4 GT ISZERO PUSH2 0x1341 JUMPI PUSH2 0x1341 PUSH2 0x18B3 JUMP JUMPDEST PUSH2 0x1354 PUSH1 0x1F DUP5 ADD PUSH1 0x1F NOT AND PUSH1 0x20 ADD PUSH2 0x1785 JUMP JUMPDEST SWAP1 POP DUP3 DUP2 MSTORE DUP4 DUP4 DUP4 ADD GT ISZERO PUSH2 0x1368 JUMPI PUSH1 0x0 DUP1 REVERT JUMPDEST DUP3 DUP3 PUSH1 0x20 DUP4 ADD CALLDATACOPY PUSH1 0x0 PUSH1 0x20 DUP5 DUP4 ADD ADD MSTORE SWAP4 SWAP3 POP POP POP JUMP JUMPDEST PUSH1 0x0 DUP3 PUSH1 0x1F DUP4 ADD SLT PUSH2 0x1390 JUMPI PUSH1 0x0 DUP1 REVERT JUMPDEST PUSH2 0x3E8 DUP4 DUP4 CALLDATALOAD PUSH1 0x20 DUP6 ADD PUSH2 0x1327 JUMP JUMPDEST PUSH1 0x0 PUSH1 0x20 DUP3 DUP5 SUB SLT ISZERO PUSH2 0x13B1 JUMPI PUSH1 0x0 DUP1 REVERT JUMPDEST DUP2 CALLDATALOAD PUSH2 0x3E8 DUP2 PUSH2 0x18C9 JUMP JUMPDEST PUSH1 0x0 DUP1 PUSH1 0x0 DUP1 PUSH1 0x80 DUP6 DUP8 SUB SLT ISZERO PUSH2 0x13D2 JUMPI PUSH1 0x0 DUP1 REVERT JUMPDEST DUP5 CALLDATALOAD PUSH2 0x13DD DUP2 PUSH2 0x18C9 JUMP JUMPDEST SWAP4 POP PUSH1 0x20 DUP6 DUP2 ADD CALLDATALOAD SWAP4 POP PUSH1 0x40 DUP7 ADD CALLDATALOAD PUSH8 0xFFFFFFFFFFFFFFFF DUP1 DUP3 GT ISZERO PUSH2 0x1402 JUMPI PUSH1 0x0 DUP1 REVERT JUMPDEST PUSH2 0x140E DUP10 DUP4 DUP11 ADD PUSH2 0x137F JUMP JUMPDEST SWAP5 POP PUSH1 0x60 DUP9 ADD CALLDATALOAD SWAP2 POP DUP1 DUP3 GT ISZERO PUSH2 0x1424 JUMPI PUSH1 0x0 DUP1 REVERT JUMPDEST DUP2 DUP9 ADD SWAP2 POP DUP9 PUSH1 0x1F DUP4 ADD SLT PUSH2 0x1438 JUMPI PUSH1 0x0 DUP1 REVERT JUMPDEST DUP2 CALLDATALOAD DUP2 DUP2 GT ISZERO PUSH2 0x144A JUMPI PUSH2 0x144A PUSH2 0x18B3 JUMP JUMPDEST DUP1 PUSH1 0x5 SHL PUSH2 0x1459 DUP6 DUP3 ADD PUSH2 0x1785 JUMP JUMPDEST DUP3 DUP2 MSTORE DUP6 DUP2 ADD SWAP1 DUP6 DUP8 ADD DUP4 DUP8 ADD DUP9 ADD DUP15 LT ISZERO PUSH2 0x1474 JUMPI PUSH1 0x0 DUP1 REVERT JUMPDEST PUSH1 0x0 SWAP4 POP JUMPDEST DUP5 DUP5 LT ISZERO PUSH2 0x14B3 JUMPI DUP1 CALLDATALOAD DUP7 DUP2 GT ISZERO PUSH2 0x1490 JUMPI PUSH1 0x0 DUP1 REVERT JUMPDEST PUSH2 0x149E DUP16 DUP11 DUP4 DUP12 ADD ADD PUSH2 0x137F JUMP JUMPDEST DUP5 MSTORE POP PUSH1 0x1 SWAP4 SWAP1 SWAP4 ADD SWAP3 SWAP2 DUP8 ADD SWAP2 DUP8 ADD PUSH2 0x1479 JUMP JUMPDEST POP SWAP10 SWAP13 SWAP9 SWAP12 POP SWAP7 SWAP10 POP POP POP POP POP POP POP POP JUMP JUMPDEST PUSH1 0x0 DUP1 PUSH1 0x40 DUP4 DUP6 SUB SLT ISZERO PUSH2 0x14D8 JUMPI PUSH1 0x0 DUP1 REVERT JUMPDEST DUP3 CALLDATALOAD PUSH2 0x14E3 DUP2 PUSH2 0x18C9 JUMP JUMPDEST SWAP5 PUSH1 0x20 SWAP4 SWAP1 SWAP4 ADD CALLDATALOAD SWAP4 POP POP POP JUMP JUMPDEST PUSH1 0x0 DUP1 PUSH1 0x0 PUSH1 0x60 DUP5 DUP7 SUB SLT ISZERO PUSH2 0x1506 JUMPI PUSH1 0x0 DUP1 REVERT JUMPDEST DUP4 CALLDATALOAD PUSH2 0x1511 DUP2 PUSH2 0x18C9 JUMP JUMPDEST SWAP6 PUSH1 0x20 DUP6 ADD CALLDATALOAD SWAP6 POP PUSH1 0x40 SWAP1 SWAP5 ADD CALLDATALOAD SWAP4 SWAP3 POP POP POP JUMP JUMPDEST PUSH1 0x0 DUP1 PUSH1 0x40 DUP4 DUP6 SUB SLT ISZERO PUSH2 0x1539 JUMPI PUSH1 0x0 DUP1 REVERT JUMPDEST DUP3 CALLDATALOAD SWAP2 POP PUSH1 0x20 DUP4 ADD CALLDATALOAD PUSH8 0xFFFFFFFFFFFFFFFF DUP2 GT ISZERO PUSH2 0x1557 JUMPI PUSH1 0x0 DUP1 REVERT JUMPDEST PUSH2 0x1563 DUP6 DUP3 DUP7 ADD PUSH2 0x137F JUMP JUMPDEST SWAP2 POP POP SWAP3 POP SWAP3 SWAP1 POP JUMP JUMPDEST PUSH1 0x0 PUSH1 0x20 DUP3 DUP5 SUB SLT ISZERO PUSH2 0x157F JUMPI PUSH1 0x0 DUP1 REVERT JUMPDEST POP CALLDATALOAD SWAP2 SWAP1 POP JUMP JUMPDEST PUSH1 0x0 DUP1 PUSH1 0x0 DUP1 PUSH1 0x80 DUP6 DUP8 SUB SLT ISZERO PUSH2 0x159C JUMPI PUSH1 0x0 DUP1 REVERT JUMPDEST DUP5 CALLDATALOAD SWAP4 POP PUSH1 0x20 DUP6 ADD CALLDATALOAD PUSH2 0x15AE DUP2 PUSH2 0x18C9 JUMP JUMPDEST SWAP3 POP PUSH1 0x40 DUP6 ADD CALLDATALOAD SWAP2 POP PUSH1 0x60 DUP6 ADD CALLDATALOAD PUSH8 0xFFFFFFFFFFFFFFFF DUP2 GT ISZERO PUSH2 0x15D1 JUMPI PUSH1 0x0 DUP1 REVERT JUMPDEST PUSH2 0x15DD DUP8 DUP3 DUP9 ADD PUSH2 0x137F JUMP JUMPDEST SWAP2 POP POP SWAP3 SWAP6 SWAP2 SWAP5 POP SWAP3 POP JUMP JUMPDEST PUSH1 0x0 DUP1 PUSH1 0x40 DUP4 DUP6 SUB SLT ISZERO PUSH2 0x15FC JUMPI PUSH1 0x0 DUP1 REVERT JUMPDEST DUP3 CALLDATALOAD SWAP2 POP PUSH1 0x20 DUP4 ADD CALLDATALOAD PUSH8 0xFFFFFFFFFFFFFFFF DUP2 GT ISZERO PUSH2 0x161A JUMPI PUSH1 0x0 DUP1 REVERT JUMPDEST DUP4 ADD PUSH1 0x1F DUP2 ADD DUP6 SGT PUSH2 0x162B JUMPI PUSH1 0x0 DUP1 REVERT JUMPDEST PUSH2 0x1563 DUP6 DUP3 CALLDATALOAD PUSH1 0x20 DUP5 ADD PUSH2 0x1327 JUMP JUMPDEST PUSH1 0x0 DUP2 MLOAD DUP1 DUP5 MSTORE PUSH2 0x1652 DUP2 PUSH1 0x20 DUP7 ADD PUSH1 0x20 DUP7 ADD PUSH2 0x1826 JUMP JUMPDEST PUSH1 0x1F ADD PUSH1 0x1F NOT AND SWAP3 SWAP1 SWAP3 ADD PUSH1 0x20 ADD SWAP3 SWAP2 POP POP JUMP JUMPDEST PUSH1 0x0 PUSH12 0xFFFFFFFFFFFFFFFFFFFFFFFF NOT DUP1 DUP10 PUSH1 0x60 SHL AND DUP4 MSTORE DUP8 PUSH1 0x14 DUP5 ADD MSTORE DUP7 PUSH1 0x34 DUP5 ADD MSTORE DUP1 DUP7 PUSH1 0x60 SHL AND PUSH1 0x54 DUP5 ADD MSTORE POP DUP4 PUSH1 0x68 DUP4 ADD MSTORE DUP3 MLOAD PUSH2 0x16AF DUP2 PUSH1 0x88 DUP6 ADD PUSH1 0x20 DUP8 ADD PUSH2 0x1826 JUMP JUMPDEST SWAP2 SWAP1 SWAP2 ADD PUSH1 0x88 ADD SWAP8 SWAP7 POP POP POP POP POP POP POP JUMP JUMPDEST PUSH1 0x0 DUP3 MLOAD PUSH2 0x16D3 DUP2 DUP5 PUSH1 0x20 DUP8 ADD PUSH2 0x1826 JUMP JUMPDEST SWAP2 SWAP1 SWAP2 ADD SWAP3 SWAP2 POP POP JUMP JUMPDEST PUSH1 0x1 DUP1 PUSH1 0xA0 SHL SUB DUP8 AND DUP2 MSTORE DUP6 PUSH1 0x20 DUP3 ADD MSTORE PUSH1 0xC0 PUSH1 0x40 DUP3 ADD MSTORE PUSH1 0x0 PUSH2 0x1704 PUSH1 0xC0 DUP4 ADD DUP8 PUSH2 0x163A JUMP JUMPDEST DUP6 PUSH1 0x60 DUP5 ADD MSTORE DUP5 PUSH1 0x80 DUP5 ADD MSTORE DUP3 DUP2 SUB PUSH1 0xA0 DUP5 ADD MSTORE PUSH2 0x1722 DUP2 DUP6 PUSH2 0x163A JUMP JUMPDEST SWAP10 SWAP9 POP POP POP POP POP POP POP POP POP JUMP JUMPDEST PUSH1 0x20 DUP2 MSTORE PUSH1 0x0 PUSH2 0x3E8 PUSH1 0x20 DUP4 ADD DUP5 PUSH2 0x163A JUMP JUMPDEST PUSH1 0x20 DUP1 DUP3 MSTORE PUSH1 0x8 SWAP1 DUP3 ADD MSTORE PUSH8 0x2737BA1029B2B633 PUSH1 0xC1 SHL PUSH1 0x40 DUP3 ADD MSTORE PUSH1 0x60 ADD SWAP1 JUMP JUMPDEST DUP3 DUP2 MSTORE PUSH1 0x40 PUSH1 0x20 DUP3 ADD MSTORE PUSH1 0x0 PUSH2 0x177D PUSH1 0x40 DUP4 ADD DUP5 PUSH2 0x163A JUMP JUMPDEST SWAP5 SWAP4 POP POP POP POP JUMP JUMPDEST PUSH1 0x40 MLOAD PUSH1 0x1F DUP3 ADD PUSH1 0x1F NOT AND DUP2 ADD PUSH8 0xFFFFFFFFFFFFFFFF DUP2 GT DUP3 DUP3 LT OR ISZERO PUSH2 0x17AE JUMPI PUSH2 0x17AE PUSH2 0x18B3 JUMP JUMPDEST PUSH1 0x40 MSTORE SWAP2 SWAP1 POP JUMP JUMPDEST PUSH1 0x0 DUP3 NOT DUP3 GT ISZERO PUSH2 0x17C9 JUMPI PUSH2 0x17C9 PUSH2 0x1871 JUMP JUMPDEST POP ADD SWAP1 JUMP JUMPDEST PUSH1 0x0 DUP3 PUSH2 0x17EB JUMPI PUSH4 0x4E487B71 PUSH1 0xE0 SHL PUSH1 0x0 MSTORE PUSH1 0x12 PUSH1 0x4 MSTORE PUSH1 0x24 PUSH1 0x0 REVERT JUMPDEST POP DIV SWAP1 JUMP JUMPDEST PUSH1 0x0 DUP2 PUSH1 0x0 NOT DIV DUP4 GT DUP3 ISZERO ISZERO AND ISZERO PUSH2 0x180A JUMPI PUSH2 0x180A PUSH2 0x1871 JUMP JUMPDEST POP MUL SWAP1 JUMP JUMPDEST PUSH1 0x0 DUP3 DUP3 LT ISZERO PUSH2 0x1821 JUMPI PUSH2 0x1821 PUSH2 0x1871 JUMP JUMPDEST POP SUB SWAP1 JUMP JUMPDEST PUSH1 0x0 JUMPDEST DUP4 DUP2 LT ISZERO PUSH2 0x1841 JUMPI DUP2 DUP2 ADD MLOAD DUP4 DUP3 ADD MSTORE PUSH1 0x20 ADD PUSH2 0x1829 JUMP JUMPDEST DUP4 DUP2 GT ISZERO PUSH2 0x1850 JUMPI PUSH1 0x0 DUP5 DUP5 ADD MSTORE JUMPDEST POP POP POP POP JUMP JUMPDEST PUSH1 0x0 PUSH1 0x0 NOT DUP3 EQ ISZERO PUSH2 0x186A JUMPI PUSH2 0x186A PUSH2 0x1871 JUMP JUMPDEST POP PUSH1 0x1 ADD SWAP1 JUMP JUMPDEST PUSH4 0x4E487B71 PUSH1 0xE0 SHL PUSH1 0x0 MSTORE PUSH1 0x11 PUSH1 0x4 MSTORE PUSH1 0x24 PUSH1 0x0 REVERT JUMPDEST PUSH4 0x4E487B71 PUSH1 0xE0 SHL PUSH1 0x0 MSTORE PUSH1 0x21 PUSH1 0x4 MSTORE PUSH1 0x24 PUSH1 0x0 REVERT JUMPDEST PUSH4 0x4E487B71 PUSH1 0xE0 SHL PUSH1 0x0 MSTORE PUSH1 0x32 PUSH1 0x4 MSTORE PUSH1 0x24 PUSH1 0x0 REVERT JUMPDEST PUSH4 0x4E487B71 PUSH1 0xE0 SHL PUSH1 0x0 MSTORE PUSH1 0x41 PUSH1 0x4 MSTORE PUSH1 0x24 PUSH1 0x0 REVERT JUMPDEST PUSH1 0x1 PUSH1 0x1 PUSH1 0xA0 SHL SUB DUP2 AND DUP2 EQ PUSH2 0x11FE JUMPI PUSH1 0x0 DUP1 REVERT INVALID LOG2 PUSH5 0x6970667358 0x22 SLT KECCAK256 0xC3 0x26 CALLDATACOPY PUSH26 0xEED87DFDBD99B7F7F27AE5B37B993DC1FE0217C98C180D76E9D2 GT SWAP4 PUSH5 0x736F6C6343 STOP ADDMOD MOD STOP CALLER "
        },
        "methodIdentifiers": {
          "addSigner(address,uint256)": "65af1bed",
          "chainId()": "9a8a0592",
          "closeStream(address)": "de4b9e93",
          "executeTransaction(address,uint256,bytes,bytes[])": "d1fbffa0",
          "getTransactionHash(uint256,address,uint256,bytes)": "545a4a3c",
          "isOwner(address)": "2f54bf6e",
          "nonce()": "affed0e0",
          "openStream(address,uint256,uint256)": "2a387d5d",
          "recover(bytes32,bytes)": "19045a25",
          "removeSigner(address,uint256)": "3bad5426",
          "signaturesRequired()": "ce757d29",
          "streamBalance(address)": "e0a2ff54",
          "streamWithdraw(uint256,string)": "a8397ddc",
          "streams(address)": "83699275",
          "updateSignaturesRequired(uint256)": "3034a742"
        }
      }
    }
  }
}